:020000040800F2
:1000000020070020BD010008591B00083517000813
:10001000551B0008890400086D1B00080000000043
:10002000000000000000000000000000611B00084C
:100030008D040008000000005D1B0008651B00081F
:10004000D7010008D7010008D7010008D701000830
:10005000D7010008D7010008D7010008D701000820
:10006000D701000891040008D7010008D701000853
:10007000D7010008D7010008D7010008D701000800
:10008000D7010008D7010008D7010008D7010008F0
:10009000D7010008D7010008D7010008D7010008E0
:1000A000D7010008D7010008D7010008D7010008D0
:1000B000D7010008D7010008D7010008D7010008C0
:1000C000D7010008D7010008D7010008D7010008B0
:1000D000D7010008D7010008D7010008D7010008A0
:1000E000D7010008D7010008D701000800F002F886
:1000F00000F055F814A696E8000CB244B344DA4573
:1001000001D100F04CF8BAE80F000FA696E83000D5
:10011000A5EB040504EB0607AAEB0704A7F101070A
:100120004FEA15154FEA3414A4F10104AC4201D38F
:1001300000F035F813F0010F18BFFB1A43F001036C
:1001400000F001F8DBE71847A01F0000C01F000007
:10015000103A24BF78C878C1FAD8520724BF30C8F3
:1001600030C144BF04680C60704700007047000055
:100170000023002400250026103A28BF78C1FBD8B0
:10018000520728BF30C148BF0B607047642900F098
:100190008980002070471FB51FBD10B510BD00F04D
:1001A00039F91146FFF7F7FF01F07CFE00F057F92F
:1001B00003B4FFF7F2FF03BC00F05EF90948804783
:1001C00009480047FEE7FEE7FEE7FEE7FEE7FEE739
:1001D000FEE7FEE7FEE7FEE704480549054A064B51
:1001E00070470000691B0008ED0000082001002096
:1001F0002007002020030020200300200FB41CB59E
:100200000C0007AA009007D04142A14202D320442B
:10021000401E01E04FF0FF30074B7B4469460190E0
:10022000069800F0DCF80020002C01D0009908703E
:100230001CBC5DF814FB0000E70100002DE9F04153
:100240000E460446002020622046E168884730B30D
:10025000252805D0D4E901219047206A401CF2E707
:10026000E168204600278847050018D0A5F1410025
:10027000192802D820354FF4006732462946204617
:100280002760FFF783FF40B1012804D0F61D26F058
:1002900007060836D8E7361DD6E72846DAE7206A8B
:1002A000BDE8F0812DE9F04106460024106875296B
:1002B000314616A510D0AFF30080002802DA404284
:1002C00013A507E031688A0701D512A502E04907A6
:1002D00004D511A5012401E0AFF3008000210A221A
:1002E00006F1240709E0B0FBF2FCB0FBF2F302FBDD
:1002F0001C00303078541846491C0028F3D123469E
:100300002A463046BDE8F04100F00BB8000000007E
:100310002D0000002B0000002000000070477047F7
:1003200070472DE9F0470D4699469246044600F184
:1003300024080168880604D5E06921F010012160D5
:1003400000E00120A84201DD471B00E00027A16971
:100350007A1902EB0900081AA0612078C00602D4BD
:100360002046AFF30080002608E0D4E901211AF806
:1003700006009047206A401C761C20624E45F4DB44
:100380002078C0060AD52046AFF3008006E0D4E905
:10039000012130209047206A401C2062381EA7F1BE
:1003A0000107F4DC07E0D4E9012118F805009047C3
:1003B000206A401C2062281EA5F10105F3DC2046BE
:1003C000AFF300802078000602D50220BDE8F08758
:1003D0000120FBE701694A1C02610878704700B5FB
:1003E0008FB0CDE901310021059105497944CDE96E
:1003F000031011466846FFF721FF0FB000BD000053
:10040000E5FFFFFFD1E900239A4202D2531C0B60A3
:1004100010707047754600F02BF8AE46050069462F
:10042000534620F00700854618B020B5FFF7D4FEEC
:10043000BDE820404FF000064FF000074FF00008E5
:100440004FF0000BAC46ACE8C009ACE8C009ACE822
:10045000C009ACE8C00921F007018D46704710B50E
:100460000446AFF300802046BDE81040FFF7A0BE71
:10047000004870471000002001491820ABBEFEE77D
:100480002600020070470000FEE7000070470000F1
:10049000082000F027B80000B0B5044600F044F989
:1004A000054640F20000C2F200000078611C18BF4F
:1004B000044400BF00F038F9401BA042FAD3B0BD9D
:1004C000082818BF704740F27002C2F2000210689C
:1004D0000821431C40F60040C4F20100136000F004
:1004E00015B9000040F21441C4F201010A68024249
:1004F00014BF08607047FFF7E3BF00002DE9F04F1D
:1005000082B00E68002E00F0FD8041F20042C4F27D
:100510000102042340F2004E904208BF03234FF62D
:10052000FF7CC4F2010E009300240123C1F2100CE1
:100530004FF0000A4FF000094BE000BF41F200020B
:10054000C4F20102009F904208BF022704F00C038E
:100550000F229A402BEA020207FA03F34FEA9A05A8
:100560001A4346F825204E6840F20C45F202DEF8A8
:10057000082054BF22EA080242EA0802C4F2010538
:10058000CEF808202A68B30254BF22EA080242EAE1
:1005900008022A60B303DEF8042054BF22EA0802EE
:1005A00042EA0802F303CEF80420DEF800204FF000
:1005B000010354BF22EA080242EA0802CEF80020F2
:1005C0000E680AF1010A36FA0AF204F1040400F096
:1005D000998003FA0AFB16EA0B08F1D04E686645CB
:1005E00012DC122E56D8DFE806F0350B4D49555572
:1005F000555555555555555555555545510000BFFF
:10060000D1F80C9046E000BF4FF6FF72C1F2210214
:1006100096420FDC0022C1F2110296421AD000224B
:10062000C1F21202964215D00022C1F22102964276
:1006300010D02FE00022C1F2220296420AD00022FE
:10064000C1F23102964205D00022C1F23202964236
:1006500020D100BF8A684AB1012A14BFC0F814B083
:10066000C0F810B04FF0080914E000BF4FF00409C3
:1006700010E000BFCA6802F104090BE04FF0000966
:1006800008E000BFCA6802F1080903E0CA6802F185
:100690000C0900BF02462646B8F5807F24BF04320D
:1006A000203E17680F25B54027EA050509FA06F62A
:1006B00035431560CA79D2067FF582AF41F218033F
:1006C000C4F202031A68AEF57E7642F001021A60A7
:1006D0001A6802F001020192019A2AF0030256F808
:1006E00002B040F60002C4F20102904208D040F687
:1006F0000042C4F2010290427FF420AF012725E7B7
:10070000002723E702B0BDE8F08F0000C26802EACC
:100710000103914341EA034101617047002A08BF88
:10072000090401617047000040F21810C2F2000095
:1007300000687047002804BF01207047F0B581B001
:10074000044690F83D0028B9002084F83C0020467B
:1007500000F090F9242084F83D002068016821F021
:1007600001010160016841F400410160016821F468
:100770000041016000F048FB636848F2A16CC0F2E0
:10078000010C40F60011C0F23D0163453CBF48F248
:100790008041C0F21E01884202D2012001B0F0BDAA
:1007A0004DF68361C4F21B31A0FB01122168970C46
:1007B000D1F804E04FF496762EF03F0545EA9245D5
:1007C0004D60774348F638160D6AC0F24106A7FB24
:1007D000067625F03F07634538BF960C721C3A43F6
:1007E0000A62CA6948F2A0664CF6FF77C0F20106B9
:1007F000B34222EA07020BD801385B00B0FBF3F0EA
:1008000001306FF31F30042898BF04201BE000BFA5
:10081000A768013857B119277B43B0FBF3F00130CB
:100820006FF31F3070B100F5804007E003EB430326
:10083000B0FBF3F001306FF31F3018B100F500404A
:1008400001E000BF01201043C8610868D4E9072314
:1008500020F0C000104318430860886848F2FF3257
:1008600004F10C0790438CCF18431043A6698860AD
:10087000C86820F0FF0038433043C860086840F083
:100880000100086000202021206484F83D102063CE
:1008900084F83E0001B0F0BD2DE9F04383B01E4660
:1008A000174689460446FFF73FFF94F83D1020297C
:1008B00024D10546206800BF816989071AD5FFF752
:1008C00033FF411B20681A29F6D381698907F3D5C4
:1008D00000202021206384F83D1084F83E00216C24
:1008E00041F02001216484F83C00022003B0BDE8FF
:1008F000F08300BF94F83C10012903D1022003B01B
:10090000BDE8F083012184F83C100168C90703D1D8
:10091000016841F001010160016840F2020821F420
:1009200000610160212184F83D10102184F83E10FF
:100930000021216467626685618DC0F2010821850E
:10094000A8F10211E162E16A0A9E11F5803F18BF29
:1009500001291DD1016841F48071016020464FF0EA
:10096000011100223346009500F044FF50B1206889
:100970000068C00544BF4FF400702064012003B03C
:10098000BDE8F0832069B0F5804F07D1FE2015E067
:100990000829DFD0216B1229DCD0DFE7062000EA2E
:1009A000D9102168F030086108F10601204632466E
:1009B0002B4601F005F80028E0D1FF20216800EA6D
:1009C000090008612046414632462B4600F0F8FFF8
:1009D0000028D3D1002002902068416902918069EB
:1009E0000290029806E000BF204631462A4600F0F9
:1009F000A3FE18BB208D68B3204631462A4601F07D
:100A00004BF8D8B9606A2168024612F8013B0B61C5
:100A10006262628D013A6285228D531E23854F6981
:100A20007F07E1D51B04DFD0437802300B616062A1
:100A3000608D01386085901E2085D5E7206C0428E4
:100A40009CD12068016841F400710160012003B06D
:100A5000BDE8F0832068016841F400710160202046
:100A600084F83D00002084F83E0084F83C0003B088
:100A7000BDE8F08310B586B0016845F20040C4F2CD
:100A8000000081424FF00001CDE90411CDE90211CF
:100A900002D006B010BD00BF41F21804C4F2020437
:100AA000216800F5384041F008012160216801F01B
:100AB000080101910199C0210291122103910321A2
:100AC000059102A9FFF71AFD606840F4001060600C
:100AD000606800F400100190019806B010BD00009D
:100AE00040F2000040F21811C2F20000C2F2000110
:100AF00000780A68104408607047000080B542F230
:100B00000000C4F20200016841F0100101600320FE
:100B100000F08CF80F2000F005F800F027F8002016
:100B200080BD000070B540F20006C2F2000640F23F
:100B300008013278C2F200014FF47A730968B3FBFE
:100B4000F2F20446B1FBF2F1084600F071FB0F2C03
:100B50004FF0010508D838B94FF0FF302146002288
:100B6000002500F037F87460284670BD82B041F26D
:100B70001800C4F202000168022241F00101016084
:100B8000016801F0010101910199416841F0805132
:100B90004160406800F08050009000980420C4F24A
:100BA0000100016862F31A61016002B07047000041
:100BB000002848BF704700F01F01012202FA01F12E
:100BC0001C2202EAD0004EF20012CEF20002815046
:100BD0007047000010B54EF60C5CCEF2000CDCF84D
:100BE0000030C3F3022E8EF00704042C28BF042427
:100BF000BEF103034FF0FF3E0EFA04F438BF0023AA
:100C0000A14399400EFA03F39A43114300F00F02F7
:100C100000F160430901043A03F56443624400288B
:100C200048BF02F10C03197010BD00004EF60C51C4
:100C3000CEF200010A684FF6FF031A4060F30A2261
:100C400042F0806040F0FD7008607047002804BFEB
:100C5000012070472DE9F04381B042F20008C4F250
:100C600002080446D8F800000D4600F00700814253
:100C70000CD9D8F8000020F007002843C8F800007D
:100C8000D8F8000000F00700A8426CD1206841F2BB
:100C900004098107C4F2020917D5410705D5D9F81F
:100CA000001041F4E061C9F80010010705D5D9F83A
:100CB000001041F46051C9F80010D9F80010A26882
:100CC00021F0F0011143C9F80010C00742D1D8F853
:100CD000000000F0070085420CD2D8F8000020F098
:100CE00007002843C8F80000D8F8000000F007000B
:100CF000A84238D12068410707D5D9F80010E2682A
:100D000021F4E0611143C9F80010000708D5D9F8B3
:100D10000000216920F4605040EAC100C9F80000D9
:100D2000D9F8002002F00C00082841F20020C0F29F
:100D30007A004DD142F2D603C2F38341C0F60003DC
:100D4000595CD20338D440F60010C0F23D0048434D
:100D50003EE000BF606859F8041C022808D0012852
:100D600026D1890306D4012001B0BDE8F08300BF7D
:100D70008901F8D5D9F8001021F003010843C9F81A
:100D80000000FFF7D1FC064641F28837D9F8000091
:100D9000616800F00C00B0EB810F98D0FFF7C4FC45
:100DA000801BB842F2D9032001B0BDE8F08300BF38
:100DB0008907D8D5DEE700BFD9F8002042F2D40376
:100DC000C2F34042C0F600039A5C4843B0FBF2F025
:100DD000D9F8001042F2BC02C1F30311C0F60002C0
:100DE000515C40F2080220FA01F140F20400C2F224
:100DF00000000068C2F200021160FFF793FE0020BD
:100E000001B0BDE8F083000040F2080041F20401A7
:100E1000C2F20000C4F202010068096842F2CC028A
:100E2000C1F30221C0F60002515CC84070470000C7
:100E3000002804BF012070472DE9F04182B004462C
:100E4000007841F20006C007C4F202060CD07068B8
:100E500000F00C00042840F081803068800303D546
:100E60006068002800F04681207880071BD57068F4
:100E700010F00C0F09D0706800F00C00082840F04A
:100E800087807068C00300F183803068800703D5D5
:100E90002069012840F02E813068616920F0F80057
:100EA00040EAC10030602078000713D42078400762
:100EB0002CD4E569002D00F01881706800F00C005A
:100EC000082840F0A780012D40F00481012002B0E5
:100ED000BDE8F081A069002800F084800020C4F201
:100EE00042200121C0F88014FFF71EFC054600BF18
:100EF000706A800700F1B280FFF716FC401B0228E1
:100F0000F6D9032002B0BDE8F08100BFF0695FEAC6
:100F1000C00808D4F06940F08050F061F06900F03A
:100F200080500090009847F20007C4F2000738682C
:100F3000C00549D4386840F480703860FFF7F4FB8E
:100F4000054600BF3868C0053ED4FFF7EDFB401BE7
:100F50006428F7D9032002B0BDE8F081706800F082
:100F60000C00082803D17068C0033FF576AF6168B4
:100F70003068002900F00C81B1F5A02F00F000814D
:100F8000B1F5803F40F01A8140F480301CE100BF91
:100F90002069002840F20000C4F2422000F088805E
:100FA00001210160FFF7C0FB054600BF30688007E4
:100FB0003FF572AFFFF7B8FB401B0228F6D90320BC
:100FC00002B0BDE8F08100BFE168306A002900F09E
:100FD0009D80052900F09280012940F0AF8040F00B
:100FE0000100B1E00020C4F242200021C0F88014CA
:100FF000FFF79AFB054600BF706A80077FF556AF82
:10100000FFF792FB401B0228F6D9032002B0BDE88F
:10101000F08100BF0027C4F2422700203866FFF7A6
:1010200083FB022D05460DD13068800140F1DE8042
:10103000FFF77AFB401B02284FF00300F4D902B0FF
:10104000BDE8F081306880014FD5FFF76DFB401B94
:1010500002284FF00300F5D9F1E700BF40F2080085
:10106000C2F20000006844F6D351C1F26201A0FB55
:101070000101480A019000BF00BF0198411E0028ED
:1010800001913FF413AF00BF0198411E0028019168
:101090003FF40CAF00BF0198411E002801913FF4BE
:1010A00005AF00BF0198411E00280191E4D1FDE683
:1010B00000210160FFF738FB054600BF306880075C
:1010C0007FF5F1AEFFF730FB401B02284FF0030025
:1010D000F4D9B4E77068216A00F480328A4209D1F9
:1010E000616A00F47010884204D1002002B0BDE8AB
:1010F000F08100BF012002B0BDE8F08140F00400A3
:101100003062306A40F001001EE000BF20F00100B4
:101110003062306A20F004003062FFF705FB0546BC
:1011200041F28837306A800720D5FFF7FDFA401B6F
:10113000B8424FF00300F5D981E700BF20F001006D
:101140003062306A20F004003062FFF7EDFA0546A5
:1011500041F28837306A800708D4FFF7E5FA401B70
:10116000B842F7D9032002B0BDE8F081B8F1000F12
:101170003FF59FAEF06920F08050F06199E600BF26
:1011800040F480203060306840F480301CE000BFC4
:1011900020F480303060306820F480203060FFF729
:1011A000C3FA0546306880037FF55EAEFFF7BCFAF0
:1011B000401B64284FF00300F4D940E720F480304E
:1011C0003060306820F480203060FFF7ADFA0546CB
:1011D000306880033FF548AEFFF7A6FA401B64284D
:1011E000F6D9032002B0BDE8F08100BF206AB0F557
:1011F000803F05D17168A26821F40031114371600C
:101200007168626A21F4741111430843706001200F
:101210003866FFF789FA0446306880013FF565AF0C
:10122000FFF782FA001B02284FF00300F4D906E70B
:10123000411E0020B0EB116F1CBF012070474EF221
:101240001002CEF2000251604EF62351CEF20001A0
:10125000F0230B70072190601160704790F83C20DC
:10126000012A4FF0020236D010B580F83D20026806
:10127000D2F804E0D2F808C00C682EF070032343C3
:1012800040F2FF74C4F20004A24253600ADCB2F1DF
:10129000804F13D040F20043C4F200039A420DD0B5
:1012A00011E000BF42F60043C4F201039A4205D0A8
:1012B00040F60003C4F200039A4204D149682CF0BE
:1012C0008003194391600121002280F83D1080F8CD
:1012D0003C20BDE8104010467047000080B586B045
:1012E0000068B0F1804F4FF00000CDE90400CDE977
:1012F000020001D006B080BD41F21800C4F2020025
:10130000016841F004010160006802A900F00400D6
:10131000019001980220CDE90200059040F60000FE
:10132000C4F20100FFF7EAF806B080BD90F83C3047
:10133000012B04BF022070474FEAB202032A00F2D9
:10134000F1802DE9F043DFE802F003A53B7500BF13
:10135000036842F600461D6A1A6AC4F2010622F0CA
:1013600001021A621A465C6852F818CFB3428E68BE
:10137000D1F800E025F0020545EA06050CD1CE685B
:10138000D1E9057824F4407425F00C0526F0040614
:101390003C43354344EA08042CF0730747EA0E0740
:1013A0005C609F614F6809695F631D629F6947F0D8
:1013B00008079F619F6927F004079F61A6E000BFAF
:1013C000036842F600461D6A1A6AC4F2010622F456
:1013D00080721A621A46D3F804C052F81CEFB34266
:1013E0008E680C6825F4007545EA06250FD1CE6895
:1013F000D1E90598360240F2FF4725F44065BE4327
:1014000035432CF4405748EA090647EA061C2EF0FB
:1014100073072743C3F804C0DF614F680969DF63BE
:101420001D62DF6947F00807DF61DF6927F0040705
:10143000DF616BE0036842F60047D3F820C01A6A08
:10144000C4F2010722F480521A621A465C6852F80C
:101450001C5FD1F800E08E68BB4204D14F6924F4D0
:10146000804444EA87142CF4005747EA063725F4F1
:10147000E64646EA0E265C60DE614E6809691E6437
:101480001F62DF6947F40067DF61DF6927F4806767
:10149000DF613AE0036842F600461D6A1A6AC4F248
:1014A000010622F010021A621A46D3F804C052F85C
:1014B000184FB3428E68D1F800E025F0200545EAC8
:1014C00006150FD1CE68D1E905986FF0400725F0D9
:1014D000C00507EA061635432CF4406748EA0906BA
:1014E00047EA860C24F4E64444EA0E27C3F804C015
:1014F0009F614F6809699F631D629F6947F4006798
:101500009F619F6927F480679F61090213681943EF
:1015100011600021BDE8F043002280F83C2008461D
:10152000704700BF0121002280F83C200846704728
:10153000002804BF0120704710B590F83D1031B964
:10154000002180F83C10044600F070F8204602218B
:1015500080F83D10016840F2FF740B68C4F200048B
:1015600042F6004CA142C4F2010C15DCB1F1804FEF
:101570001AD040F20042C4F20002914214D0A142BB
:1015800018DCB1F1804F1DD040F20042C4F20002DD
:10159000914217D01AE000BF614505D040F6000225
:1015A000C4F200029142EAD1826823F0700313432F
:1015B000A142E6DD614505D040F60002C4F200021A
:1015C000914203D1026923F440731343846923F0E9
:1015D0008002D0F804E0C368224361450A60CB6210
:1015E000C1F828E002D14269CCF8302001224A61DA
:1015F0000B69DB0703D00B6923F001030B6180F853
:10160000462080F83E2080F83F2080F8402080F877
:10161000412080F8422080F8432080F8442080F860
:10162000452080F83D20002010BD00000068B0F18A
:10163000804F18BF704781B041F21C00C4F2020015
:10164000016841F001010160006800F001000090B4
:10165000009801B070470000C1B1042908D00829E2
:1016600014BF41224022825C012A05D016E000BF4F
:101670003F22825C012A11D10222082910D00429BC
:1016800014BF80F8412080F83F200BE090F83E2006
:10169000012A03D1022280F83E2003E00120704796
:1016A00080F84020006801F01F010122036A8A408F
:1016B00023EA02010162036A42F64441C4F20101D5
:1016C0001A43A1F14403984202620FD040F2FF7125
:1016D000C4F20001884213DCB0F1804F1CD040F20C
:1016E0000041C4F20001884216D01CE00A6842F4AE
:1016F00000420A6040F2FF71C4F200018842EBDD53
:1017000042F60041C4F20101884205D040F60001D2
:10171000C4F20001884206D1816801F00701062960
:1017200004BF00207047016841F001010160002002
:1017300070470000FEE7000070B50368044653F8E8
:10174000140F400711D40E46481C29D086BB00BF99
:101750001868400527D4FEF7E7FF236853F8140FF5
:10176000400737D518684007F2D5002070BD00BF8C
:1017700018684007F9D41868400514D41868400761
:10178000F3D4186840050ED418684007EDD41868E3
:10179000400508D4186840074FF0000048BF70BDEE
:1017A00018684005E4D56FF480601860042012E0EA
:1017B000154603E053F8140F4007D6D418684005C7
:1017C000F1D4FEF7B1FF401B2368B042F2D958694B
:1017D0004007EFD4202000212022216384F83D20FF
:1017E00084F83E10226C10432064012084F83C10E1
:1017F00070BD00002DE9F041054600681E46144604
:1018000001F47F0201338FB242D0DDF81880B2F5C7
:10181000803F40F0878040693840C01BB0FA80F0BC
:101820004009844240F0C8804EB924E04069384005
:10183000C01BB0FA80F04009844240F0BD80FEF742
:1018400073FFA0EB08012868B142EFD94169394024
:10185000C91BB1FA81F149098C42E7D19BE000BF75
:1018600040693840C01BB0FA80F0400984424FF014
:10187000000040F0A280FEF757FF28684169394018
:10188000C91BB1FA81F149098C42E9D183E000BF5B
:10189000B2F5803F24D100BF41693940C91BB1FA7C
:1018A00081F149098C4240F0878041693940C91B68
:1018B000B1FA81F149098C4240F07E80416939409A
:1018C000C91BB1FA81F149098C4275D1416939408E
:1018D000C91BB1FA81F149098C42DDD06CE000BF2F
:1018E00081693940C91BB1FA81F149098C4263D140
:1018F00081693940C91BB1FA81F149098C425BD138
:1019000081693940C91BB1FA81F149098C4253D12F
:1019100081693940C91BB1FA81F149098C42DFD094
:101920004AE000BF80693840C01BB0FA80F040092F
:10193000844241D146B923E080693840C01BB0FAE7
:1019400080F04009844237D1FEF7EEFEA0EB08019B
:101950002868B142F0D981693940C91BB1FA81F1D7
:1019600049098C42E8D116E080693840C01BB0FAC2
:1019700080F0400984424FF0000018BFBDE8F081BC
:10198000FEF7D2FE286881693940C91BB1FA81F19E
:1019900049098C42E8D100202021286385F83D10B8
:1019A00085F83E00296C41F02001296485F83C004F
:1019B0000120BDE8F08100BF0020BDE8F0810000FB
:1019C000F0B581B0044600681D4643698FB203EA52
:1019D0000701B94202D1002001B0F0BD41691646AD
:1019E00001323CD0490512D47EB300BFFEF79CFE05
:1019F000411B2068B14203D941693940B9422BD11A
:101A000041693940B942E6D041694905EED50168DE
:101A100041F4007101606FF4806141610420002194
:101A20002022216384F83D2084F83E10226C10436C
:101A3000206484F83C10012001B0F0BD41693940B8
:101A4000B942C8D041694905E1D4FEF76DFE20686E
:101A500041693940B942F1D02020E0E741694905A8
:101A6000D5D441693940B942B5D041694905CED490
:101A700041693940B942AED041694905C7D441698D
:101A80003940B942A7D041694905C0D441693940BC
:101A9000B942E3D19FE7000070B50368044653F8EC
:101AA000140F000611D40E46481C29D086BB00BF77
:101AB0001868400527D4FEF737FE236853F8140F43
:101AC000000637D518680006F2D5002070BD00BFAB
:101AD00018680006F9D41868400514D41868000680
:101AE000F3D4186840050ED418680006EDD41868C1
:101AF000400508D4186800064FF0000048BF70BDCC
:101B000018684005E4D56FF480601860042012E086
:101B1000154603E053F8140F0006D6D418684005A4
:101B2000F1D4FEF701FE401B2368B042F2D9586998
:101B30000006EFD4202000212022216384F83D20DC
:101B400084F83E10226C10432064012084F83C107D
:101B500070BD0000FEE70000FEE7000070470000D7
:101B600070470000FEF7BCBF70470000FEE70000B2
:101B70002DE9F04784B090468946032904462DD8C4
:101B8000DFE809F00210080C6FF07F0080EA08001F
:101B90000AE000BFA8F16C0006E000BFA8F12C002D
:101BA00002E000BFA8F1400020F00F01000101F1A8
:101BB0000C0208318DF8051000F10C018DF804209D
:101BC0008DF8061000F10802206821798DF80720B1
:101BD000642701AA04230097FEF75EFEB8F1130FF5
:101BE00013DC42F62D1AA8F11405C0F60D1A64266E
:101BF00003AF00BF206821793A460423CDF80CA03A
:101C00000096FEF749FE0135F4D3B9F1030F2DD844
:101C1000DFE809F00210080C6FF07F0080EA08008E
:101C20000AE000BFA8F16C0006E000BFA8F12C009C
:101C300002E000BFA8F1400020F00F01000101F117
:101C40000C0208318DF8091000F10C018DF8082004
:101C50008DF80A1000F10802206821798DF80B2018
:101C6000642702AA04230097FEF716FE04B0BDE81D
:101C7000F0870000032A88BF7047DFE802F0030BFB
:101C8000070900BF6FF07F02514004E06C3902E0A9
:101C90002C3900E0403980B582B021F00F020901F3
:101CA00002F10C0308328DF804308DF8052001F1A3
:101CB0000C0203688DF8062001F1080201798DF805
:101CC00007204FF0640C01AA18460423CDF800C089
:101CD000FEF7E2FD02B0BDE88040704770B582B00B
:101CE00004463220FEF7D8FB43F63C0620682179F3
:101CF000C0F60C06642501AA042301960095FEF7A0
:101D0000CBFD0520FEF7C8FB2068217901AA04233A
:101D100001960095FEF7C0FD0120FEF7BDFB20688F
:101D2000217901AA042301960095FEF7B5FD0A204A
:101D3000FEF7B2FB42F62C02C0F60C0220682179B5
:101D4000019201AA04230095FEF7A6FD0A20FEF7E2
:101D5000A3FB42F62C02C8F68C022068217901927E
:101D600001AA04230095FEF797FD0120FEF794FBDE
:101D700040F60C02C8F68C0220682179019201AA73
:101D800004230095FEF788FD0120FEF785FB40F651
:101D90000C02C1F61C0220682179019201AA0423D9
:101DA0000095FEF779FD0220FEF776FB40F60C0267
:101DB000C6F66C0220682179019201AA04230095DD
:101DC000FEF76AFD0120FEF767FB40F60C02CCF639
:101DD000CC0220682179019201AA04230095FEF724
:101DE0005BFD02B070BD0000F0B585B001AD0B46E3
:101DF000044615A228460C21FEF700FA9DF80400BF
:101E0000F8B16E1E642704AD20F00F01000101F14E
:101E10000D0209318DF8111000F10D018DF810201F
:101E20008DF8121000F10902206821798DF8132035
:101E30002A4604230097FEF72FFDB07801360028CC
:101E4000E2D105B0F0BD00BF256400000A78002A89
:101E500008BF7047F0B583B004464E1E642702AD3C
:101E600022F00F00110100F10D0209308DF8090078
:101E700001F10D008DF808208DF80A0001F109022A
:101E8000206821798DF80B202A4604230097FEF75D
:101E900003FDB2780136002AE2D103B0BDE8F0407C
:101EA0007047000090B0FEF729FEFEF727FE0024E1
:101EB0000120CDE90B44CDE9094406900A904FF486
:101EC000E0104FF4803102250F9006A8CDE90714E9
:101ED000CDE90D51FEF7ACFF20B1EFF3108072B6E3
:101EE000FEE700BF0F20CDE900054FF48060CDE98B
:101EF0000304684602210294FEF7A8FE20B1EFF326
:101F0000108072B6FEE700BF002741F21800CDE94D
:101F10000877CDE90677C4F20200016840F6004870
:101F200041F0200101600168C4F2010801F02001C4
:101F3000009100990168002241F0040101600168EC
:101F4000082401F0040100910099016841F00801A2
:101F500001600068082100F00800009000984046E9
:101F6000FEF7DCFB0020C1F2210006ADCDE907073A
:101F7000A8F5806029460694FEF7C0FA0220069470
:101F80000124099040462946CDE90747FEF7B6FAF5
:101F9000092000210022FEF71DFE0920FEF708FEA1
:101FA00040F27006C2F200064FF08041304640F821
:101FB0000C1F40F26671C0E903178021CDE900775C
:101FC000CDE90B77CDE90977C0E901478161FFF7DA
:101FD000AFFA28B1EFF3108072B600BFFEE700BF82
:101FE00006F10C0569462846FFF738F920B1EFF3F2
:101FF000108072B6FEE700BF6020069040F2B3305A
:102000000790002706A92846042208970A97FFF799
:102010008DF928B1EFF3108072B600BFFEE700BF64
:102020002846FFF75BF940F2C404A8F53840C2F235
:10203000000448F2A061C0F201014FF4804284E83C
:1020400083002046C4E90372C4E90577C4E9077731
:10205000FEF770FB20B1EFF3108072B6FEE700BF11
:10206000354645F8044F4E2028712846FFF736FEC6
:10207000284601210022FFF7FDFD0EA12846FFF7AB
:10208000E5FE05F108000421FFF7E6FA341D00BF64
:10209000204600210722FFF76BFD20460721012281
:1020A000FFF7E8FD31682046FFF79EFE6420FEF74B
:1020B000F3F9EDE7436F756E743A0000000000001D
:1020C00000000000010203040607080900000000E8
:1020D00001020304010202030405060708090A0BB2
:1020E0000C0D0E0F10100000082100080000002049
:1020F0001000000050010008182100081000002006
:10210000100700007001000801000000100000002E
:0821100000127A00000000003B
:04000005080000ED02
:00000001FF
