:020000040800F2
:1000000058070020BD010008991E0008911E000835
:10001000951E0008AD040008D11F00080000000074
:10002000000000000000000000000000A11E000809
:10003000B1040008000000009D1E0008A51E000875
:10004000D7010008D7010008D7010008D701000830
:10005000D7010008D7010008D7010008D701000820
:10006000D7010008B5040008D7010008D70100082F
:10007000D7010008D7010008D7010008D701000800
:10008000D7010008D7010008D7010008D7010008F0
:10009000D7010008D7010008D7010008D7010008E0
:1000A000D7010008D7010008D7010008D7010008D0
:1000B000D7010008D7010008D7010008D7010008C0
:1000C000D7010008D7010008D7010008D7010008B0
:1000D000D7010008B91F0008D7010008C51F000894
:1000E000D7010008D7010008D701000800F002F886
:1000F00000F055F814A696E8000CB244B344DA4573
:1001000001D100F04CF8BAE80F000FA696E83000D5
:10011000A5EB040504EB0607AAEB0704A7F101070A
:100120004FEA15154FEA3414A4F10104AC4201D38F
:1001300000F035F813F0010F18BFFB1A43F001036C
:1001400000F001F8DBE71847C8200000E8200000B5
:10015000103A24BF78C878C1FAD8520724BF30C8F3
:1001600030C144BF04680C60704700007047000055
:100170000023002400250026103A28BF78C1FBD8B0
:10018000520728BF30C148BF0B607047642900F098
:100190007D80002070471FB51FBD10B510BD00F059
:1001A0004AF91146FFF7F7FF01F014FF00F068F974
:1001B00003B4FFF7F2FF03BC00F070F90948804771
:1001C00009480047FEE7FEE7FEE7FEE7FEE7FEE739
:1001D000FEE7FEE7FEE7FEE704480549054A064B51
:1001E00070470000A91E0008ED000008580100201B
:1001F0005807002058030020580300200FB41CB5F6
:10020000074B06AA7B4469460090059800F0FBF86E
:100210000020694600F00AF91CBC5DF814FB0000E0
:10022000250200002DE9F0410E4604460020206220
:100230002046E168884730B3252805D0D4E901215C
:100240009047206A401CF2E7E16820460027884773
:10025000050018D0A5F14100192802D820354FF427
:1002600000673246294620462760FFF78FFF40B1DE
:10027000012804D0F61D26F007060836D8E7361DFB
:10028000D6E72846DAE7206ABDE8F0812DE9F0419B
:100290000646002410687529314616A510D0AFF324
:1002A0000080002802DA404213A507E031688A077F
:1002B00001D512A502E0490704D511A5012401E0EA
:1002C000AFF3008000210A2206F1240709E0B0FB09
:1002D000F2FCB0FBF2F302FB1C00303078541846FD
:1002E000491C0028F3D123462A463046BDE8F04198
:1002F00000F02AB8000000002D0000002B000000D4
:100300002000000010B5431C02E010F8011B71B181
:100310008107FAD14FF0013202C88C1A8C4314EADB
:10032000C211F9D0C01A0A0603D0C01E10BDC01AEF
:1003300010BD0A0401D0801E10BD0902FCD0401E71
:1003400010BD7047704770472DE9F0470D4699463C
:100350009246044600F124080168880604D5E06945
:1003600021F01001216000E00120A84201DD471BBF
:1003700000E00027A1697A1902EB0900081AA061C0
:100380002078C00602D42046AFF30080002608E0A3
:10039000D4E901211AF806009047206A401C761C17
:1003A00020624E45F4DB2078C0060AD52046AFF324
:1003B000008006E0D4E9012130209047206A401CEB
:1003C0002062381EA7F10107F4DC07E0D4E901211F
:1003D00018F805009047206A401C2062281EA5F1ED
:1003E0000105F3DC2046AFF300802078000602D53B
:1003F0000220BDE8F0870120FBE7000001694A1CEC
:1004000002610878704700B58FB0CDE90131002155
:10041000059105497944CDE9031011466846FFF777
:1004200001FF0FB000BD0000E5FFFFFF0A6802F802
:10043000010B0A607047754600F02CF8AE460500C7
:100440006946534620F00700854618B020B5FFF7EF
:10045000C3FEBDE820404FF000064FF000074FF00C
:1004600000084FF0000BAC46ACE8C009ACE8C0098E
:10047000ACE8C009ACE8C00921F007018D4670471F
:1004800010B50446AFF300802046BDE81040FFF7EA
:100490008FBE00000048704710000020014918205E
:1004A000ABBEFEE72600020070470000FEE700003A
:1004B00070470000082000F0BBB80000014690F82B
:1004C0002100022816D10868D1E90FC3026822F082
:1004D0000E020260026822F001020260012000FAAE
:1004E00003F2CCF8042081F821000020002281F8DA
:1004F00020207047042088630120002281F82020FA
:100500007047000090F82110022923D1026840F2C0
:10051000040C1168C4F2020C21F00E011160136882
:100520002F21C4F202018A4223F00103136015DD7A
:100530003023C4F202039A421CD04423C4F20203C3
:100540009A421BD05823C4F202039A421CD14FF4A2
:10055000803321E004218163012070470823C4F225
:1005600002039A420ED01C23C4F202039A420BD11A
:10057000102311E04FF480730EE000BF4FF480535E
:100580000AE000BF012307E00CF168014FF080731F
:100590008A4208BF4FF480130121CCF8003080F864
:1005A0002110416B0022002980F8202004BF002088
:1005B000704780B58847002080BD0000082832D1F0
:1005C00040F20C00C2F200000078002808BF70471B
:1005D000B0B586B000F04EF940F27005C2F20005E9
:1005E000A968411A79291BD3A860686808210130DD
:1005F000686040F60040C4F2010000F02DF96A681E
:1006000001AC09A12046FFF7F9FD2046FFF77AFE6D
:1006100005F10C0182B2084621460A2301F06CFB69
:1006200006B0BDE8B040704725640D0A0000000028
:1006300040F21441C4F201010A68024214BF08608A
:100640007047FFF7BBBF00002DE9F04F82B00E6886
:10065000002E00F0FD8041F20042C4F201020423AA
:1006600040F2004E904208BF03234FF6FF7CC4F2D5
:10067000010E009300240123C1F2100C4FF0000A78
:100680004FF000094BE000BF41F20002C4F201024A
:10069000009F904208BF022704F00C030F229A40EB
:1006A0002BEA020207FA03F34FEA9A051A4346F8C7
:1006B00025204E6840F20C45F202DEF8082054BFB7
:1006C00022EA080242EA0802C4F20105CEF8082034
:1006D0002A68B30254BF22EA080242EA08022A60EA
:1006E000B303DEF8042054BF22EA080242EA0802FB
:1006F000F303CEF80420DEF800204FF0010354BFCE
:1007000022EA080242EA0802CEF800200E680AF146
:10071000010A36FA0AF204F1040400F0998003FA9F
:100720000AFB16EA0B08F1D04E68664512DC122E61
:1007300056D8DFE806F0350B4D49555555555555FA
:100740005555555555555545510000BFD1F80C909C
:1007500046E000BF4FF6FF72C1F2210296420FDC65
:100760000022C1F2110296421AD00022C1F21202F6
:10077000964215D00022C1F22102964210D02FE0FD
:100780000022C1F2220296420AD00022C1F23102B6
:10079000964205D00022C1F23202964220D100BF1B
:1007A0008A684AB1012A14BFC0F814B0C0F810B06A
:1007B0004FF0080914E000BF4FF0040910E000BF3B
:1007C000CA6802F104090BE04FF0000908E000BF1D
:1007D000CA6802F1080903E0CA6802F10C0900BF07
:1007E00002462646B8F5807F24BF0432203E1768B3
:1007F0000F25B54027EA050509FA06F635431560C9
:10080000CA79D2067FF582AF41F21803C4F202031F
:100810001A68AEF57E7642F001021A601A6802F09C
:1008200001020192019A2AF0030256F802B040F642
:100830000002C4F20102904208D040F60042C4F225
:10084000010290427FF420AF012725E7002723E72C
:1008500002B0BDE8F08F0000C26802EA01039143D4
:1008600041EA034101617047002A08BF09040161A0
:100870007047000040F25410C2F200000068704758
:1008800040F2000040F25411C2F20000C2F2000136
:1008900000780A68104408607047000080B542F292
:1008A0000000C4F20200016841F010010160032061
:1008B00000F08CF80F2000F005F800F027F8002079
:1008C00080BD000070B540F20006C2F2000640F2A2
:1008D00008013278C2F200014FF47A730968B3FB61
:1008E000F2F20446B1FBF2F1084600F085FB0F2C52
:1008F0004FF0010508D838B94FF0FF3021460022EB
:10090000002500F037F87460284670BD82B041F2CF
:100910001800C4F202000168022241F001010160E6
:10092000016801F0010101910199416841F0805194
:100930004160406800F08050009000980420C4F2AC
:100940000100016862F31A61016002B070470000A3
:10095000002848BF704700F01F01012202FA01F190
:100960001C2202EAD0004EF20012CEF200028150A8
:100970007047000010B54EF60C5CCEF2000CDCF8AF
:100980000030C3F3022E8EF00704042C28BF042489
:10099000BEF103034FF0FF3E0EFA04F438BF00230C
:1009A000A14399400EFA03F39A43114300F00F025A
:1009B00000F160430901043A03F5644362440028EE
:1009C00048BF02F10C03197010BD00004EF60C5127
:1009D000CEF200010A684FF6FF031A4060F30A22C4
:1009E00042F0806040F0FD7008607047002804BF4E
:1009F000012070472DE9F04381B042F20008C4F2B3
:100A000002080446D8F800000D4600F007008142B5
:100A10000CD9D8F8000020F007002843C8F80000DF
:100A2000D8F8000000F00700A8426CD1206841F21D
:100A300004098107C4F2020917D5410705D5D9F881
:100A4000001041F4E061C9F80010010705D5D9F89C
:100A5000001041F46051C9F80010D9F80010A268E4
:100A600021F0F0011143C9F80010C00742D1D8F8B5
:100A7000000000F0070085420CD2D8F8000020F0FA
:100A800007002843C8F80000D8F8000000F007006D
:100A9000A84238D12068410707D5D9F80010E2688C
:100AA00021F4E0611143C9F80010000708D5D9F816
:100AB0000000216920F4605040EAC100C9F800003C
:100AC000D9F8002002F00C00082841F20020C0F202
:100AD0007A004DD142F20023C2F38341C0F60003F5
:100AE000595CD20338D440F60010C0F23D004843B0
:100AF0003EE000BF606859F8041C022808D00128B5
:100B000026D1890306D4012001B0BDE8F08300BFDF
:100B10008901F8D5D9F8001021F003010843C9F87C
:100B20000000FFF7A7FE064641F28837D9F800001B
:100B3000616800F00C00B0EB810F98D0FFF79AFECF
:100B4000801BB842F2D9032001B0BDE8F08300BF9A
:100B50008907D8D5DEE700BFD9F8002042F2FE139E
:100B6000C2F34042C0F600039A5C4843B0FBF2F087
:100B7000D9F8001042F2E612C1F30311C0F60002E8
:100B8000515C40F2080220FA01F140F20400C2F286
:100B900000000068C2F200021160FFF793FE00201F
:100BA00001B0BDE8F083000040F2080041F204010A
:100BB000C2F20000C4F202010068096842F2F612B3
:100BC000C1F30221C0F60002515CC840704700002A
:100BD00040F2080041F20401C2F20000C4F2020136
:100BE0000068096842F2F612C1F3C221C0F60002A1
:100BF000515CC84070470000002804BF01207047C6
:100C00002DE9F04182B00446007841F20006C007A9
:100C1000C4F202060CD0706800F00C00042840F00A
:100C200081803068800303D56068002800F0468129
:100C3000207880071BD5706810F00C0F09D0706801
:100C400000F00C00082840F087807068C00300F1B5
:100C500083803068800703D52069012840F02E8109
:100C60003068616920F0F80040EAC1003060207807
:100C7000000713D4207840072CD4E569002D00F03C
:100C80001881706800F00C00082840F0A780012D42
:100C900040F00481012002B0BDE8F081A069002885
:100CA00000F084800020C4F242200121C0F88014AA
:100CB000FFF7E0FD054600BF706A800700F1B280D3
:100CC000FFF7D8FD401B0228F6D9032002B0BDE88B
:100CD000F08100BFF0695FEAC00808D4F06940F015
:100CE0008050F061F06900F080500090009847F269
:100CF0000007C4F200073868C00549D4386840F4DA
:100D000080703860FFF7B6FD054600BF3868C00543
:100D10003ED4FFF7AFFD401B6428F7D9032002B093
:100D2000BDE8F081706800F00C00082803D17068FD
:100D3000C0033FF576AF61683068002900F00C8190
:100D4000B1F5A02F00F00081B1F5803F40F01A818D
:100D500040F480301CE100BF2069002840F2000010
:100D6000C4F2422000F0888001210160FFF782FD7B
:100D7000054600BF306880073FF572AFFFF77AFD88
:100D8000401B0228F6D9032002B0BDE8F08100BF65
:100D9000E168306A002900F09D80052900F092800A
:100DA000012940F0AF8040F00100B1E00020C4F222
:100DB00042200021C0F88014FFF75CFD054600BF0B
:100DC000706A80077FF556AFFFF754FD401B02287D
:100DD000F6D9032002B0BDE8F08100BF0027C4F2BD
:100DE000422700203866FFF745FD022D05460DD14C
:100DF0003068800140F1DE80FFF73CFD401B022897
:100E00004FF00300F4D902B0BDE8F08130688001F2
:100E10004FD5FFF72FFD401B02284FF00300F5D9F7
:100E2000F1E700BF40F20800C2F20000006844F69B
:100E3000D351C1F26201A0FB0101480A019000BF39
:100E400000BF0198411E002801913FF413AF00BF7D
:100E50000198411E002801913FF40CAF00BF01989A
:100E6000411E002801913FF405AF00BF0198411ECB
:100E700000280191E4D1FDE600210160FFF7FAFCB2
:100E8000054600BF306880077FF5F1AEFFF7F2FC42
:100E9000401B02284FF00300F4D9B4E77068216AC0
:100EA00000F480328A4209D1616A00F470108842ED
:100EB00004D1002002B0BDE8F08100BF012002B0E3
:100EC000BDE8F08140F004003062306A40F001007B
:100ED0001EE000BF20F001003062306A20F0040004
:100EE0003062FFF7C7FC054641F28837306A800759
:100EF00020D5FFF7BFFC401BB8424FF00300F5D9E7
:100F000081E700BF20F001003062306A20F0040069
:100F10003062FFF7AFFC054641F28837306A800740
:100F200008D4FFF7A7FC401BB842F7D9032002B052
:100F3000BDE8F081B8F1000F3FF59FAEF06920F0F9
:100F40008050F06199E600BF40F480203060306846
:100F500040F480301CE000BF20F480303060306806
:100F600020F480203060FFF785FC05463068800360
:100F70007FF55EAEFFF77EFC401B64284FF0030058
:100F8000F4D940E720F480303060306820F48020CD
:100F90003060FFF76FFC0546306880033FF548AED0
:100FA000FFF768FC401B6428F6D9032002B0BDE8B7
:100FB000F08100BF206AB0F5803F05D17168A2685A
:100FC00021F40031114371607168626A21F4741177
:100FD00011430843706001203866FFF74BFC04465C
:100FE000306880013FF565AFFFF744FC001B022825
:100FF0004FF00300F4D906E7411E0020B0EB116F5B
:101000001CBF012070474EF21002CEF20002516068
:101010004EF62351CEF20001F0230B7007219060B1
:101020001160704790F83C20012A4FF0020236D040
:1010300010B580F83D200268D2F804E0D2F808C06C
:101040000C682EF07003234340F2FF74C4F20004D6
:10105000A24253600ADCB2F1804F13D040F2004349
:10106000C4F200039A420DD011E000BF42F60043E3
:10107000C4F201039A4205D040F60003C4F2000313
:101080009A4204D149682CF08003194391600121F0
:10109000002280F83D1080F83C20BDE8104010464A
:1010A0007047000080B586B00068B0F1804F4FF007
:1010B0000000CDE90400CDE9020001D006B080BDFA
:1010C00041F21800C4F20200016841F0040101601D
:1010D000006802A900F00400019001980220CDE907
:1010E0000200059040F60000C4F20100FFF7ACFAE0
:1010F00006B080BD90F83C30012B04BF0220704741
:101100004FEAB202032A00F2F1802DE9F043DFE852
:1011100002F003A53B7500BF036842F600461D6A56
:101120001A6AC4F2010622F001021A621A465C68C9
:1011300052F818CFB3428E68D1F800E025F00205CE
:1011400045EA06050CD1CE68D1E9057824F440744F
:1011500025F00C0526F004063C43354344EA080418
:101160002CF0730747EA0E075C609F614F680969BE
:101170005F631D629F6947F008079F619F6927F0C1
:1011800004079F61A6E000BF036842F600461D6A9F
:101190001A6AC4F2010622F480721A621A46D3F85F
:1011A00004C052F81CEFB3428E680C6825F4007539
:1011B00045EA06250FD1CE68D1E90598360240F2FE
:1011C000FF4725F44065BE4335432CF4405748EAB9
:1011D000090647EA061C2EF073072743C3F804C02C
:1011E000DF614F680969DF631D62DF6947F0080747
:1011F000DF61DF6927F00407DF616BE0036842F617
:101200000047D3F820C01A6AC4F2010722F48052C2
:101210001A621A465C6852F81C5FD1F800E08E68CA
:10122000BB4204D14F6924F4804444EA87142CF46F
:10123000005747EA063725F4E64646EA0E265C6084
:10124000DE614E6809691E641F62DF6947F400674A
:10125000DF61DF6927F48067DF613AE0036842F607
:1012600000461D6A1A6AC4F2010622F010021A62D0
:101270001A46D3F804C052F8184FB3428E68D1F81A
:1012800000E025F0200545EA06150FD1CE68D1E92A
:1012900005986FF0400725F0C00507EA06163543AC
:1012A0002CF4406748EA090647EA860C24F4E64431
:1012B00044EA0E27C3F804C09F614F6809699F6321
:1012C0001D629F6947F400679F619F6927F48067EB
:1012D0009F6109021368194311600021BDE8F043C2
:1012E000002280F83C200846704700BF0121002200
:1012F00080F83C2008467047002804BF0120704752
:1013000010B590F83D1031B9002180F83C1004462A
:1013100000F070F82046022180F83D10016840F28C
:10132000FF740B68C4F2000442F6004CA142C4F200
:10133000010C15DCB1F1804F1AD040F20042C4F22A
:101340000002914214D0A14218DCB1F1804F1DD0AF
:1013500040F20042C4F20002914217D01AE000BFEE
:10136000614505D040F60002C4F200029142EAD184
:10137000826823F070031343A142E6DD614505D086
:1013800040F60002C4F20002914203D1026923F444
:1013900040731343846923F08002D0F804E0C368EB
:1013A000224361450A60CB62C1F828E002D142695C
:1013B000CCF8302001224A610B69DB0703D00B69AE
:1013C00023F001030B6180F8462080F83E2080F86E
:1013D0003F2080F8402080F8412080F8422080F8AB
:1013E000432080F8442080F8452080F83D200020EC
:1013F00010BD00000068B0F1804F18BF704781B089
:1014000041F21C00C4F20200016841F001010160D8
:10141000006800F001000090009801B070470000E3
:10142000C1B1042908D0082914BF41224022825C9E
:10143000012A05D016E000BF3F22825C012A11D1AB
:101440000222082910D0042914BF80F8412080F816
:101450003F200BE090F83E20012A03D1022280F8C1
:101460003E2003E00120704780F84020006801F032
:101470001F010122036A8A4023EA02010162036A12
:1014800042F64441C4F201011A43A1F144039842D7
:1014900002620FD040F2FF71C4F20001884213DCF7
:1014A000B0F1804F1CD040F20041C4F200018842EC
:1014B00016D01CE00A6842F400420A6040F2FF7154
:1014C000C4F200018842EBDD42F60041C4F20101A2
:1014D000884205D040F60001C4F20001884206D1DE
:1014E000816801F00701062904BF002070470168E8
:1014F00041F00101016000207047000070470000CA
:1015000070470000B0B582B001680A68CC684B69CA
:1015100002F02F05202D04F0200505D125B102B0E1
:10152000BDE8B04000F0C8BC5FEA027C1EBF03F01B
:10153000010E04F4907313EB0E0341D1036BD50637
:1015400018D5012B16D114F0100313D000220192EC
:101550000A6801924A680192019A496949064BD486
:10156000818DC28DC38D002B18BF914240F0F48154
:1015700002B0B0BD13062DD514F080032AD090F828
:101580004120212AF4D18268B2F5805F03D102693B
:10159000002A00F06782026A531C036212784A60D4
:1015A000C28C013A1304C284E2D1C86820F08000E2
:1015B000C860C86840F04000C86002B0B0BD00BF5D
:1015C000D30718BF14F4807340F0D080530700F1A4
:1015D000D380D8E05206CBD514F04002C8D0CA68F8
:1015E00022F04002CA60202180F8411002B0BDE81C
:1015F000B04000F04BBC00BFC16B0A68526893B2A8
:10160000002BB5D0858DAB42B2D2C2858969202925
:1016100000F0A180016851E8031F026821F4807185
:1016200042E80313DBB1016851E8031F026821F4AB
:10163000807142E8031393B1016851E8031F026807
:1016400021F4807142E803134BB1016851E8031F94
:10165000026821F4807142E80313002BDAD101689B
:1016600051E8051F026821F0010142E80513C3B3E8
:10167000016851E8051F026821F0010142E80513E5
:101680007BB3016851E8051F026821F0010142E8BF
:10169000051333B3016851E8051F026821F0010109
:1016A00042E80513002BDAD11BE000BF016851E8C6
:1016B000051F026821F0400142E80513DBB1016813
:1016C00051E8051F026821F0400142E8051393B17B
:1016D000016851E8051F026821F0400142E8051346
:1016E0004BB1016851E8051F026821F0400142E852
:1016F0000513002BDAD1202180F84210002101636C
:10170000016851E8031F026821F0100142E8031349
:10171000DBB1016851E8031F026821F0100142E8C3
:10172000031393B1016851E8031F026821F010010F
:1017300042E803134BB1016851E8031F026821F02E
:10174000100142E80313002BDAD1C16B04460846AE
:10175000FEF7B4FE204602214163818DC28D891AB5
:1017600089B202B0BDE8B040FFF7C8BE436C43F099
:1017700001034364530706D5BEF1000F03D0436C49
:1017800043F002034364930706D5BEF1000F03D074
:10179000436C43F004034364BCF1000F06D55EEADA
:1017A000050303D0436C43F008034364436C002BF0
:1017B0003FF4DEAE920605D525B1044600F07CFB71
:1017C000216820464969426C01F0400102F008029C
:1017D000891800F0B98000BF016851E8031F026852
:1017E00021F4907142E80313BBB3016851E8031F71
:1017F000026821F4907142E8031373B3016851E861
:10180000031F026821F4907142E803132BB30168AF
:1018100051E8031F026821F4907142E80313002B82
:10182000DAD11AE0016851E8051F026821F00101D0
:1018300042E80513DBB1016851E8051F026821F099
:10184000010142E8051393B1016851E8051F0268E0
:1018500021F0010142E805134BB1016851E8051F71
:10186000026821F0010142E80513002BDAD1016B77
:10187000012924D1016851E8031F026821F01001F9
:1018800042E80313DBB1016851E8031F026821F04D
:10189000100142E8031393B1016851E8031F026885
:1018A00021F0100142E803134BB1016851E8031F16
:1018B000026821F0100142E80313002BDAD1202145
:1018C00080F842100021016301684969490640F12E
:1018D000C380016851E8051F026821F0400142E819
:1018E0000513DBB1016851E8051F026821F04001D2
:1018F00042E8051393B1016851E8051F026821F021
:10190000400142E805134BB1016851E8051F026828
:1019100021F0400142E80513002BDAD1C16B002908
:1019200000F09A8041F6AD62C0F600020446084617
:101930004A63FEF7E7FD00283FF41AAEE06B416B07
:1019400002B0BDE8B04008470446FFF7D9FD0020CB
:10195000606402B0B0BD00BF891A00BF026852E8DF
:10196000032F036822F4907243E80325BDB3026895
:1019700052E8032F036822F4907243E8032575B3FD
:10198000026852E8032F036822F4907243E80325AB
:101990002DB3026852E8032F036822F4907243E8E3
:1019A0000325002DDAD11AE0026852E8052F0368FA
:1019B00022F0010243E80525DDB1026852E8052F57
:1019C000036822F0010243E8052595B1026852E858
:1019D000052F036822F0010243E805254DB1026896
:1019E00052E8052F036822F0010243E80525002D87
:1019F000DAD1202280F8422000220263026852E8F5
:101A0000032F036822F0100243E80325DDB10268CA
:101A100052E8032F036822F0100243E8032595B132
:101A2000026852E8032F036822F0100243E80325FE
:101A30004DB1026852E8032F036822F0100243E818
:101A40000325002DDAD1022289B2426302B0BDE83B
:101A5000B040FFF753BD00BF02B0BDE8B040FFF794
:101A60004FBD00BF026A32F8023B6FF35F234B6049
:101A7000026295E5002804BF0120704710B50446B6
:101A800090F8410028B9002084F84000204600F07A
:101A900063F8242084F841002068D4E90212C36866
:101AA00023F40053C360036923F440531A430261D3
:101AB000D4E904231143C268194341F20C639A43E9
:101AC0001143C1604169A26921F44071114343F699
:101AD0000002C4F201029042416103D0FFF764F8B2
:101AE00002E000BFFFF774F8D4E90023192148434E
:101AF0009900B0FBF1F048F21F5CC5F2EB1CA0FBB3
:101B00000C314FF69C734909C0F6FF7301FB0300CB
:101B1000322303EB0010A0FB0C03F02000EA53106B
:101B200000EB0110C3F343110844906010692021B9
:101B300020F490401061506920F02A005061D06874
:101B400040F40050D0600020606484F8411084F8B4
:101B50004210606310BD0000F0B585B0006844F627
:101B60000001C4F2000188424FF00001CDE90311E9
:101B7000CDE9011126D043F60001C4F201018842EB
:101B80005BD141F21800C4F20200016840F6000582
:101B900041F4804101600168252401F480410091F5
:101BA000009901684FF4806741F00401016000680A
:101BB000C4F2010500F00400009000984FF400709A
:101BC00021E000BF41F21800C4F20200416827245E
:101BD00041F48021416041684FF4006701F48021A5
:101BE00000910099016841F008010160006800F06F
:101BF00008000090009840F60000C4F2010000F5D3
:101C000080654FF48060019002200290032001AEB5
:101C1000049028463146FEF717FD0020CDE902006A
:101C2000284631460197FEF70FFD2046002100228D
:101C3000FEF7A0FE2046FEF78BFE05B0F0BD0000CB
:101C400090F84230202B07D100294FF0010318BF34
:101C5000002A05D11846704702231846704700BF76
:101C600000230363816222218285C285436480F858
:101C700042100169006819B1C16841F48071C16006
:101C8000416941F001014161C16841F02001C16039
:101C900018467047006843F60001C4F2010188420B
:101CA00018BF704740F27001C2F200010878332873
:101CB0001AD032280CD0312805D140F20C00C2F2E3
:101CC00000000122027001F10C000122FFF7B8BFF1
:101CD00040F20C00C2F200000022027001F10C0080
:101CE0000122FFF7ADBF00BF0020486001F10C00EA
:101CF0000122FFF7A5BF00002DE9F04381B00446A3
:101D000090F84100202809D100294FF0010018BFA8
:101D1000002A07D101B0BDE8F08300BF022001B066
:101D2000BDE8F0830020606421201D460E4684F843
:101D300041001746FEF79EFDA784E784A16881460F
:101D4000B1F5805F02D1206900285DD037460020C0
:101D5000E28C2168002A5DD06A1C24D0002D4AD074
:101D6000804600BF0868000608D4FEF783FDA0EB9C
:101D70000900A8427AD82168C868F3E717B117F8B4
:101D8000010B04E038F8020B00276FF35F20486076
:101D9000E08C0138E084E08C0028E3D13AE000BF19
:101DA0000A68120609D40A68120606D40A681206DE
:101DB0005CBF0A685FEA0262F2D51FB117F8012B17
:101DC00005E000BF30F8022B00276FF35F224A6066
:101DD000E28C013AE284E28C002AE4D11AE000BFEE
:101DE00030F8022B00276FF35F224A60E28C013A41
:101DF000E284E28C72B10A68120635D5002FEFD06A
:101E000017F8012BF1E700BF00273046E28C21686C
:101E1000002AA1D1086840061ED42DB3681C14D135
:101E2000086840062AD40868400627D40868400697
:101E300024D4086840064FF00000F1D50DE000BF43
:101E40002068C1680068400618D4FEF713FDA0EBB7
:101E50000900A842F4D909E00020202184F84110AB
:101E600001B0BDE8F08300BFFEF704FD0320202190
:101E700084F8411001B0BDE8F08300BF00202021AC
:101E800084F8411001B0BDE8F08300007047000005
:101E9000FEE70000FEE70000FEE7000070470000DC
:101EA00070470000FEF7ECBC70470000406A00215C
:101EB000C185C184FFF724BB81B090F8421022296C
:101EC00021D183680246B3F5805F09D152F8281FFB
:101ED00052F8183C002B63D003685B680AE000BF2F
:101EE00052F8281F13B90369002BF5D003685B680B
:101EF00003F07F030B70116801311160C18D01394E
:101F00000A04C18502D001B0704700BF0168CA68E9
:101F100022F02002CA60CA6822F48072CA604A694C
:101F200022F001024A61202180F842100021416321
:101F3000026B012A3CD10163016851E8031F02686A
:101F400021F0100142E80313DBB1016851E8031FDF
:101F5000026821F0100142E8031393B1016851E8CF
:101F6000031F026821F0100142E803134BB101681E
:101F700051E8031F026821F0100142E80313002B0F
:101F8000DAD101680A68D20606D5002200920A68F2
:101F90000092496800910099818D01B0FFF7AEBAB7
:101FA000026852686FF35F2221F8022B8162A5E775
:101FB00001B0FFF76FBE000040F27C00C2F20000EB
:101FC000FFF7A0BA40F20C10C2F20000FFF79ABA75
:101FD000FEE7000090B0FEF761FCFEF75FFC002416
:101FE0000120CDE90B44CDE9094406900A904FF455
:101FF000E0104FF4803102250F9006A8CDE90714B8
:10200000CDE90D51FEF7F8FD20B1EFF3108072B667
:10201000FEE700BF0F20CDE900054FF48060CDE959
:102020000304684602210294FEF7E0FC20B1EFF3BE
:10203000108072B6FEE700BF002641F21800CDE91D
:102040000866CDE90666C4F20200016840F6004465
:1020500041F0200101600168C4F2010401F0200197
:10206000009100990168002241F0040101600168BB
:10207000082701F0040100910099016841F008016E
:1020800001600068082100F00800009000982046D8
:10209000FEF7EAFB0020C1F2210006ADCDE90706FC
:1020A000A4F5806029460697FEF7CEFA022006972F
:1020B0000127099020462946CDE90776FEF7C4FAA4
:1020C000092000210022FEF755FC0920FEF740FC04
:1020D00040F2C400C2F200004FF0804140F266724C
:1020E000C0E900178021CDE90066CDE90B66CDE996
:1020F0000966C0E9026206618161FFF7FDF828B157
:10210000EFF3108072B600BFFEE700BF40F2C400DC
:10211000C2F200006946FEF785FF28B1EFF3108098
:1021200072B600BFFEE700BF6020069040F2B330F9
:10213000079040F2C4000026C2F2000006A9042263
:1021400008960A96FEF7D6FF20B1EFF3108072B61C
:10215000FEE700BF40F2C400C2F20000FEF7A2FF9B
:1021600040F27008C2F2000804F53051404640F8D1
:102170000C1F4FF416550C27C0E90156C0E9036641
:10218000C0E90576C661FFF775FC28B1EFF3108052
:1021900072B600BFFEE700BF40F20C10A4F5444148
:1021A000C2F200000022C0E90015C0E90222C0E925
:1021B0000427C0E90622FFF75DFC28B1EFF3108089
:1021C00072B600BFFEE700BF08F10C0041460122D5
:1021D000FFF736FD40F2C400C2F200000421FFF711
:1021E0001FF900BFFEE70000000000000000010230
:1021F00003040607080900000000010203040102AD
:1022000002030405060708090A0B0C0D0E0F101037
:1022100030220008000000201000000050010008DB
:10222000402200081000002048070000700100084C
:10223000010000001000000000127A000100000000
:04000005080000ED02
:00000001FF
